:100000000C945E000C9486000C9486000C94860080
:100010000C9486000C9486000C9486000C94E904E1
:100020000C9486000C9486000C9486000C94860038
:100030000C9486000C9486000C9486000C94860028
:100040000C949F040C9486000C9486000C948600FB
:100050000C9486000C9486000C9486000C94860008
:100060000C9486000C948600020000000800020137
:100070000000030407000000000000000000000072
:1000800000250028002B0000000000240027002A83
:100090000004040404040404040202020202020331
:1000A000030303030301020408102040800102043B
:1000B000081020010204081020001D0711241FBE93
:1000C000CFEFD8E0DEBFCDBF11E0A0E0B1E0EEEDB4
:1000D000F2E102C005900D92A836B107D9F721E0F0
:1000E000A8E6B1E001C01D92AA39B207E1F710E01D
:1000F000CEE5D0E004C02197FE010E946709CD350E
:10010000D107C9F70E9445050C946D090C940000B5
:1001100090E0FC01EB55FF4F24918F569F4FFC015F
:100120008491882399F090E0880F991FFC01E9578A
:10013000FF4FA591B491FC01E358FF4F8591949135
:100140008FB7F894EC91E22BEC938FBF089590E079
:10015000FC01E759FF4F2491FC01EB55FF4F34910F
:10016000FC01EF56FF4FE491EE23C9F0222339F052
:10017000233001F1A8F4213019F1223029F1F0E007
:10018000EE0FFF1FE358FF4FA591B4918FB7F8947E
:10019000EC91611126C030953E233C938FBF0895AA
:1001A0002730A9F02830C9F0243049F78091800029
:1001B0008F7D03C0809180008F7780938000DFCF98
:1001C00084B58F7784BDDBCF84B58F7DFBCF8091E5
:1001D000B0008F778093B000D2CF8091B0008F7D38
:1001E000F9CF3E2BDACF8E3008F08E5087708064C6
:1001F00080937C0080917A00806480937A00809163
:100200007A0086FDFCCF8091780090917900089566
:100210003FB7F89480917E0190917F01A091800179
:10022000B091810126B5A89B05C02F3F19F001961A
:10023000A11DB11D3FBFBA2FA92F982F8827BC0140
:10024000CD01620F711D811D911D42E0660F771F68
:10025000881F991F4A95D1F708958F929F92AF9268
:10026000BF92CF92DF92EF92FF924B015C010E940E
:1002700008016B017C010E9408016C197D098E093F
:100280009F09683E734081059105A8F321E0821A19
:100290009108A108B10888EEC80E83E0D81EE11CC1
:1002A000F11C81149104A104B10429F7FF90EF908F
:1002B000DF90CF90BF90AF909F908F9008959091D6
:1002C000000189130BC0E8E6F0E0E4919FEF909302
:1002D0000001E13049F028F0E23061F060E00C9478
:1002E000A70010926E00FACF90916F009D7F9093BF
:1002F0006F00F4CF909170009D7F9093700091E01B
:100300009093B0009091B100987F94609093B10069
:100310001092B300E3CF8F929F92AF92BF92CF9291
:10032000DF92EF92FF920F931F93CF938B0169019E
:100330007A0190910001891779F09F3F09F440C03C
:10034000CF911F910F91FF90EF90DF90CF90BF90D2
:10035000AF909F908F900895E8E6F0E0C491C7FDBC
:10036000EFCF0E948800C1113EC0980150E040E0EC
:1003700068E478EE81E090E00E943B0749015A0171
:1003800081E0881A9108A108B10885B5887F83604B
:1003900085BD2FEF3FEFA901C114D104E104F104A1
:1003A00009F4F8C0D801AA0FBB1FA70196010E944B
:1003B0005A0728EE33E040E050E00E946507E3C0B2
:1003C00080930001E8E6F0E0C491CF3F09F4B8CF94
:1003D000C13009F457C0C8F1C23009F475C0C7FD77
:1003E000AFCF0E948800980150E040E0C23009F091
:1003F00091C060E970ED83E090E00E943B07490105
:100400005A0181E0881A9108A108B1088091B100D1
:10041000887F83608093B1002FEF3FEFA901C11463
:10042000D104E104F10409F0BDCF8092B300209320
:100430007501309376014093770150937801809154
:1004400070008260809370007BCF14BC15BC94B5A3
:10045000926094BD95B5916095BD282F30E0F9016B
:10046000EF56FF4FE491F0E0EE0FFF1FE358FF4F10
:1004700045915491F901EB55FF4FE491E0936901E7
:10048000C0E06FCF109280001092810090918100A7
:100490009860909381009091810091609093810089
:1004A000282F30E0F901EF56FF4FE491F0E0EE0F16
:1004B000FF1FE358FF4F45915491F901EB55FF4F52
:1004C000E491E09368014DCF1092B0001092B1001A
:1004D0009091B00092609093B0009091B1009160C3
:1004E0009093B100282F30E0F901EF56FF4FE491CF
:1004F000F0E0EE0FFF1FE358FF4F459154915093EA
:10050000730140937201F901EB55FF4FE491E093C1
:10051000740127CF60E072E18AE790E00E943B0718
:1005200049015A0181E0881A9108A108B108C13037
:1005300009F580918100887F8160809381002FEF91
:100540003FEFA901C114D104E104F10409F02ACF5D
:10055000909289008092880020936A0130936B0109
:1005600040936C0150936D0180916F008260809385
:100570006F00E6CE2FEF3FEFA901C114D104E104D3
:10058000F10409F00FCFC13019F3C23009F44DCF97
:10059000C111D6CE87BC20936E0130936F0140937A
:1005A00070015093710180916E00826080936E00A3
:1005B000C7CEAF92BF92CF92DF92EF92FF920F938E
:1005C0001F93CF93DF936C017B018B01040F151FE9
:1005D000EB015E01AE18BF08C017D10759F0699151
:1005E000D601ED91FC910190F081E02DC6010995B5
:1005F000892B79F7C501DF91CF911F910F91FF9062
:10060000EF90DF90CF90BF90AF900895089590E065
:1006100080E00895FC0101900020E9F73197AF01D7
:10062000481B590BBC0182E891E00C94D9028F92CF
:100630009F92AF92BF920F931F93CF93DF93CDB74B
:10064000DEB7A1970FB6F894DEBF0FBECDBF19A2DB
:10065000423008F44AE08E010F5D1F4F842E912C2A
:10066000B12CA12CA50194010E946507E62FB901C8
:10067000CA01EA30F4F4E05DD801EE938D01232B3A
:10068000242B252B79F790E080E0109719F0CD010D
:100690000E940A03A1960FB6F894DEBF0FBECDBF2D
:1006A000DF91CF911F910F91BF90AF909F908F904E
:1006B0000895E95CE1CFCF93DF93EC0160E08E8198
:1006C0000E94A70061E08E810E94A70060E08E81F9
:1006D0000E94A7008BE891E00197F1F7DF91CF919D
:1006E0000895CF92DF92EF92FF920F931F93CF93D3
:1006F000DF936C017C0187E0E80EF11CD0E0C0E0E4
:10070000062F10E0B8010C2E02C0759567950A946B
:10071000E2F76170F70181917F010E94A7002196A5
:10072000C430D10579F7C601DF91CF911F910F91A8
:10073000FF90EF90DF90CF900C945B03CF92DF920D
:10074000EF92FF920F931F93CF93DF93EC01F62E5E
:10075000642F8C810E94A7008D818F3F19F060E08B
:100760000E94A7000F2D10E08F8584FF25C06E0129
:1007700087E0C80ED11CF12CE12CB8010E2C02C070
:10078000759567950A94E2F76170F60181916F01A2
:100790000E94A700FFEFEF1AFF0A88E0E816F104B5
:1007A00061F7CE01DF91CF911F910F91FF90EF90F4
:1007B000DF90CF900C945B03B80184E0759567954A
:1007C0008A95E1F7CE010E9471036F2DCE01DF9172
:1007D000CF911F910F91FF90EF90DF90CF900C94ED
:1007E000710340E0682F82E891E00C949E03CF9360
:1007F000DF93823029F49091910198609093910158
:10080000809395011092960180E48093970180E196
:100810008093980180E580939901809186010E94E0
:100820008800809187018F3F11F00E94880080919D
:1008300088010E948800C2E8D1E09E012258314020
:100840008091910184FD0AC084E090E021962817F0
:1008500039073CF48E810E948800EFCF88E090E059
:10086000F5CF8BE39DE00197F1F760E08091860181
:100870000E94A70060E0809188010E94A7008091FB
:1008800087018F3F19F060E00E94A70080919101DD
:1008900084FD39C063E082E891E00E947103CBE4FB
:1008A000D6E4CE010197F1F763E082E891E00E947F
:1008B00071032197F1F763E082E891E00E947103F0
:1008C00083E592E00197F1F762E082E891E00E940F
:1008D00071038091910180620E94F10384E0809312
:1008E00092018CE00E94F10381E00E94F1038BE30E
:1008F0009FE10197F1F782E08093930186E0DF9119
:10090000CF910C94F10380620E94F1038BE496E492
:100910000197F1F78091910180620E94F10383E5D4
:1009200092E00197F1F78091910180620E94F103BA
:10093000D0CF41E00E949E0381E090E008951F9295
:100940000F920FB60F9211242F933F938F939F9383
:10095000AF93BF9380917A0190917B01A0917C012C
:10096000B0917D013091790123E0230F2D3758F5A7
:100970000196A11DB11D2093790180937A01909376
:100980007B01A0937C01B0937D0180917E019091C9
:100990007F01A0918001B09181010196A11DB11D3F
:1009A00080937E0190937F01A0938001B093810199
:1009B000BF91AF919F918F913F912F910F900FBE5B
:1009C0000F901F90189526E8230F0296A11DB11DC8
:1009D000D2CF1F920F920FB60F9211242F933F93F5
:1009E0004F935F936F937F938F939F93AF93BF9337
:1009F000EF93FF938091750190917601A09177011B
:100A0000B0917801892B8A2B8B2BD1F190917401B5
:100A1000E0917201F0917301808189278083809138
:100A2000750190917601A0917701B0917801181627
:100A300019061A061B069CF48091750190917601A7
:100A4000A0917701B09178010197A109B109809334
:100A5000750190937601A0937701B0937801FF918F
:100A6000EF91BF91AF919F918F917F916F915F9126
:100A70004F913F912F910F900FBE0F901F9018959F
:100A8000809100010E945F01EACFCF93DF93CDB741
:100A9000DEB72A970FB6F894DEBF0FBECDBF7894AD
:100AA00084B5826084BD84B5816084BD85B5826073
:100AB00085BD85B5816085BD80916E008160809324
:100AC0006E0010928100809181008260809381008D
:100AD000809181008160809381008091800081609D
:100AE000809380008091B10084608093B1008091F8
:100AF000B00081608093B00080917A008460809320
:100B00007A0080917A00826080937A0080917A00E6
:100B1000816080937A0080917A00806880937A0067
:100B20001092C10082E00E94F7038DE091E00E94E4
:100B30000A0360ED77E080E090E00E942D0181E003
:100B40000E94F1038BE39FE10197F1F788E00E9497
:100B5000880089E00E9488008AE00E9488008BE07B
:100B60000E94880000E010E08EE00E94F300BC01CB
:100B7000990F880B990B0E9439082AE038E240EA65
:100B80005BE30E94EE0820E030E048EC52E40E9473
:100B9000EE086B017C018FE00E94F30020E530E05D
:100BA000DC010E9460092FEF33E040E050E00E943A
:100BB0003B072D833E834F835887245C3F4F4F4F25
:100BC0005F4F29833A834B835C8329813A813A873B
:100BD0002987E1E0809195018111E0E0E195F0E065
:100BE000EE57FE4F848980680E94F1038CE191E00A
:100BF0000E940A03A7019601C701B6010E945B0982
:100C0000882309F46CC08FE191E00E940A038BE213
:100C100091E00E940A038EE291E00E940A0389811A
:100C20009A81AB81BC81B7FFD2C041E06DE282E81E
:100C300091E00E949E0364EC7FEF8FEF9FEF2D8188
:100C40003E814F815885621B730B840B950B4AE0E4
:100C50000E94170382E391E00E940A0360E088E0AB
:100C60000E94A70060E089E00E94A70060E08AE09F
:100C70000E94A7008BE00E945F01E0919501E230A5
:100C800008F0ABC0E150F0E0EE57FE4F8489806879
:100C90000E94F10320E030E046E152E4C701B601D2
:100CA0000E94030887FF9BC049855A854536510538
:100CB0000CF095C061E088E00E94A70086E391E017
:100CC0000E940A0368EE73E080E090E00E942D012C
:100CD0000115110509F448CF0E94000045CF4601D7
:100CE0005701E894B7F82FEF3FEF4FE75FE7C501F3
:100CF000B4010E945B0981110DC02FEF3FEF4FE758
:100D00005FE7C501B4010E94030818161CF483E2D2
:100D100091E07BCF2FEF3FEF4FE75FE4C701B601D4
:100D20000E94E90818161CF487E291E06ECF2FEFBD
:100D30003FEF4FE75FECC701B6010E94030887FD54
:100D4000F3CF20E030E0A901C701B6010E940308FB
:100D500087FF3AC041E06DE282E891E00E949E0385
:100D6000C701B60190582DEC3CEC4CE45DE30E94C9
:100D700097072B013C010E9408084B015C010E946F
:100D800037089B01AC01C301B2010E9496072B01F9
:100D90003C014AE0C501B4010E94170341E06EE244
:100DA00082E891E00E949E0320E030E040E251E4BE
:100DB000C301B2010E94EE080E94080890E080E0A2
:100DC0004AE00E94170323CFC701B601CCCF4AE007
:100DD00069817A818B819C813BCFE1E054CF20E017
:100DE00030E04AE152E4C701B6010E94030861E025
:100DF00087FD05C089859A85893791058CF489E03E
:100E00000E94A70086E491E00E940A032CE231E0F0
:100E100040E050E068EE73E08BE00E948B0152CF1F
:100E20008AE00E94A70086E591E00E940A0320E084
:100E300030E0A90160ED77E0EFCFE2E8F1E0138266
:100E4000128285E091E09183808387E084838FEF35
:100E5000858386E0868385E0878384E0808783E0DE
:100E6000818782E082871386148615861686178608
:100E700081E00C94F703052E97FB1EF400940E946A
:100E8000520757FD07D00E94650707FC03D04EF4B8
:100E90000C94520750954095309521953F4F4F4FF8
:100EA0005F4F089590958095709561957F4F8F4F16
:100EB0009F4F08950E948707A59F900DB49F900DA6
:100EC000A49F800D911D11240895A1E21A2EAA1B42
:100ED000BB1BFD010DC0AA1FBB1FEE1FFF1FA217EA
:100EE000B307E407F50720F0A21BB30BE40BF50BE7
:100EF000661F771F881F991F1A9469F76095709570
:100F0000809590959B01AC01BD01CF010895A29FF2
:100F1000B001B39FC001A39F700D811D1124911DCD
:100F2000B29F700D811D1124911D08955058BB274B
:100F3000AA270E94AE070C94AF080E94A10838F0BF
:100F40000E94A80820F039F49F3F19F426F40C946D
:100F50009E080EF4E095E7FB0C949808E92F0E9498
:100F6000C00858F3BA17620773078407950720F083
:100F700079F4A6F50C94E2080EF4E0950B2EBA2F46
:100F8000A02D0B01B90190010C01CA01A00111248F
:100F9000FF27591B99F0593F50F4503E68F11A163B
:100FA000F040A22F232F342F4427585FF3CF4695CC
:100FB00037952795A795F0405395C9F77EF41F16EE
:100FC000BA0B620B730B840BBAF09150A1F0FF0FB8
:100FD000BB1F661F771F881FC2F70EC0BA0F621FA4
:100FE000731F841F48F4879577956795B795F79594
:100FF0009E3F08F0B0CF9395880F08F09927EE0F29
:101000009795879508950E94740808F481E00895E3
:101010000E94C80888F09F5798F0B92F9927B751B8
:10102000B0F0E1F0660F771F881F991F1AF0BA958C
:10103000C9F714C0B13091F00E94E208B1E0089500
:101040000C94E208672F782F8827B85F39F0B93FF2
:10105000CCF3869577956795B395D9F73EF490953F
:101060008095709561957F4F8F4F9F4F0895E894BD
:1010700009C097FB3EF490958095709561957F4FE0
:101080008F4F9F4F9923A9F0F92F96E9BB2793958E
:10109000F695879577956795B795F111F8CFFAF49E
:1010A000BB0F11F460FF1BC06F5F7F4F8F4F9F4FCF
:1010B00016C0882311F096E911C0772321F09EE82D
:1010C000872F762F05C0662371F096E8862F70E093
:1010D00060E02AF09A95660F771F881FDAF7880F6D
:1010E0009695879597F90895990F0008550FAA0BC3
:1010F000E0E8FEEF16161706E807F907C0F012162B
:101100001306E407F50798F0621B730B840B950B2D
:1011100039F40A2661F0232B242B252B21F4089582
:101120000A2609F4A140A6958FEF811D811D08951F
:1011300097F99F6780E870E060E008959FEF80EC8A
:10114000089500240A94161617061806090608952D
:1011500000240A9412161306140605060895092E93
:101160000394000C11F4882352F0BB0F40F4BF2B02
:1011700011F460FF04C06F5F7F4F8F4F9F4F089542
:1011800057FD9058440F551F59F05F3F71F0479538
:10119000880F97FB991F61F09F3F79F0879508951D
:1011A000121613061406551FF2CF4695F1DF08C03C
:1011B000161617061806991FF1CF86957105610559
:1011C00008940895E894BB2766277727CB0197F901
:1011D00008950E94740808F48FEF08950E94010991
:1011E0000C94AF080E94A10838F00E94A80820F0D3
:1011F000952311F00C9498080C949E0811240C94DB
:10120000E3080E94C00870F3959FC1F3950F50E06A
:10121000551F629FF001729FBB27F00DB11D639FA8
:10122000AA27F00DB11DAA1F649F6627B00DA11D4E
:10123000661F829F2227B00DA11D621F739FB00DF4
:10124000A11D621F839FA00D611D221F749F332764
:10125000A00D611D231F849F600D211D822F762FFD
:101260006A2F11249F5750409AF0F1F088234AF0DA
:10127000EE0FFF1FBB1F661F771F881F9150504046
:10128000A9F79E3F510580F00C9498080C94E30850
:101290005F3FE4F3983ED4F3869577956795B795CD
:1012A000F795E7959F5FC1F7FE2B880F911D9695E7
:1012B000879597F908950E947408880B990B0895F3
:1012C0000E948707B7FF0895821B930B0895EE0FC6
:0E12D000FF1F0590F491E02D0994F894FFCFD4
:1012DE00FF000000009904D9020703060348656168
:1012EE006C7468204D6F6E69746F7200543A006EA4
:1012FE00616E00696E66006F76660043200048528C
:10130E003A00202020005374617475733A204E6F9A
:10131E00726D616C20005374617475733A2057615D
:10132E00726E696E67005374617475733A204372FE
:08133E0069746963616C000031
:00000001FF
